:100000000C9462000C948A000C948A000C948A0070
:100010000C948A000C948A000C948A000C948A0038
:100020000C948A000C948A000C948A000C94140698
:100030000C948A000C948A000C948A000C948A0018
:100040000C94CA050C948A000C9498050C947205C3
:100050000C948A000C948A000C948A000C948A00F8
:100060000C948A000C948A000000000024002700F1
:100070002A0000000008000201000003040700003D
:1000800000000000000000000000230026002900FE
:1000900000000000250028002B00040404040404D0
:1000A0000404020202020202030303030303010227
:1000B00004081020408001020408102001020408F6
:1000C0001020EB0611241FBECFEFD8E0DEBFCDBF5E
:1000D00012E0A0E0B1E0E0EDF8E102C005900D9281
:1000E000AC37B107D9F723E0ACE7B2E001C01D920D
:1000F000AC38B207E1F710E0C2E6D0E004C02197C7
:10010000FE010E94600CC136D107C9F70E94360774
:100110000C94660C0C9400000F931F93CF93DF9305
:10012000CFB7F8941092C40290E041E050E0682FFD
:10013000880F770BABE0B0E0D091C402E091CD0224
:10014000F091CE028091CC029A0101C0220F8A95D3
:10015000EAF7D83008F050C08B0102C0159507951A
:10016000DA95E2F7808100FF44C0282B2083E091DC
:10017000CA02F091CB0280812091C9028A0102C09B
:10018000000F111F2A95E2F798012095282320835C
:10019000CFBFFD013197F1F7F894E091D302F091D0
:1001A000D402208130E08091D20202C0359527959B
:1001B0008A95E2F720FF08C08091C4029A0101C02D
:1001C000220F8A95EAF7922BE091CA02F091CB02B6
:1001D00080812091C9028A0102C0000F111F2A9557
:1001E000E2F7802B80838091C4028F5F8093C402EA
:1001F000A3CF20952823BACF8081822B8083CFBFC5
:10020000E7E0F0E03197F1F7892FDF91CF911F916F
:100210000F91089530E020E090E0AC01022E02C082
:10022000559547950A94E2F740FF02C0822F089542
:100230002F5F3F4F2830310581F780E00895AF925E
:10024000BF92CF92DF92EF92FF920F931F93CF93C3
:10025000DF936C017B018B01040F151FEB015E0125
:10026000AE18BF08C017D10759F06991D601ED91BA
:10027000FC910190F081E02DC6010995892B79F759
:10028000C501DF91CF911F910F91FF90EF90DF900B
:10029000CF90BF90AF900895FC01538D448D252FD2
:1002A00030E0842F90E0821B930B541710F0CF9610
:1002B000089501970895FC01918D828D981761F042
:1002C000A28DAE0FBF2FB11D5D968C91928D9F5F59
:1002D0009F73928F90E008958FEF9FEF0895FC0138
:1002E000918D828D981731F0828DE80FF11D858DEB
:1002F00090E008958FEF9FEF0895FC01918D228D7E
:10030000892F90E0805C9F4F821B91098F73992702
:1003100008958DED92E00E947D0121E0892B09F482
:1003200020E0822F089580E090E0892B29F00E9440
:10033000890181110C9400000895FC01A48DA80F7F
:10034000B92FB11DA35ABF4F2C91848D90E0019617
:100350008F739927848FA689B7892C93A089B18937
:100360008C91837080648C93938D848D981306C0D8
:100370000288F389E02D80818F7D80830895EF923C
:10038000FF920F931F93CF93DF93EC0181E0888F4F
:100390009B8D8C8D98131AC0E889F989808185FF1F
:1003A00015C09FB7F894EE89FF896083E889F989C1
:1003B00080818370806480839FBF81E090E0DF91C3
:1003C000CF911F910F91FF90EF900895F62E0B8D16
:1003D00010E00F5F1F4F0F731127E02E8C8D8E11D1
:1003E0000CC00FB607FCFACFE889F989808185FF38
:1003F000F5CFCE010E949D01F1CFEB8DEC0FFD2FCB
:10040000F11DE35AFF4FF0829FB7F8940B8FEA89F2
:10041000FB8980818062CFCFCF93DF93EC01888D01
:100420008823B9F0AA89BB89E889F9898C9185FD6F
:1004300003C0808186FD0DC00FB607FCF7CF8C91FD
:1004400085FFF2CF808185FFEDCFCE010E949D0117
:10045000E9CFDF91CF91089590E0FC01EE58FF4F76
:100460002491FC01E255FF4F3491FC01E656FF4F09
:10047000E491EE23C9F0222339F0233001F1A8F4EE
:10048000213019F1223029F1F0E0EE0FFF1FE05783
:10049000FF4FA591B4918FB7F894EC91611126C0EC
:1004A00030953E233C938FBF08952730A9F0283024
:1004B000C9F0243049F7809180008F7D03C080917E
:1004C00080008F7780938000DFCF84B58F7784BDE5
:1004D000DBCF84B58F7DFBCF8091B0008F77809389
:1004E000B000D2CF8091B0008F7DF9CF3E2BDACF14
:1004F000CF93DF9390E0FC01E255FF4F24918656A5
:100500009F4FFC0184918823D1F090E0880F991FC0
:10051000FC01E859FF4FA591B491FC01E057FF4F52
:10052000C591D49161110EC09FB7F8948C91E22FC0
:10053000E0958E238C932881E223E8839FBFDF918F
:10054000CF9108958FB7F894EC91E22BEC938FBF85
:10055000F6CF3FB7F8948091A3029091A402A091A6
:10056000A502B091A60226B5A89B05C02F3F19F0A1
:100570000196A11DB11D3FBFBA2FA92F982F882723
:10058000BC01CD01620F711D811D911D42E0660FFE
:10059000771F881F991F4A95D1F708958F929F92D0
:1005A000AF92BF92CF92DF92EF92FF926B017C01EC
:1005B0000E94A9024B015C01C114D104E104F104C1
:1005C000B9F00E94A902681979098A099B09683E55
:1005D00073408105910580F321E0C21AD108E1083A
:1005E000F10888EE880E83E0981EA11CB11CE4CFB0
:1005F000FF90EF90DF90CF90BF90AF909F908F9043
:100600000895CF92DF92EF92FF921F93CF93DF93E3
:100610007C011FB7F894E091D002F091D1022081C3
:100620003091CF0281E090E001C0880F3A95EAF75F
:100630008095822380831FBFE701C62ED12CCE0177
:100640008E199F098C159D0524F489910E948C00B8
:10065000F6CFF894E091D002F091D1028081909190
:10066000CF0221E030E001C0220F9A95EAF7822BF9
:1006700080831FBF6091D90270E090E080E0DF913D
:10068000CF911F91FF90EF90DF90CF900C94CE020E
:100690004F925F926F927F928F929F92AF92BF9292
:1006A000FF920F931F93CF93DF93CDB7DEB72997B8
:1006B0000FB6F894DEBF0FBECDBF182F2FB7F8943A
:1006C0006091AB027091AC028091AD029091AE024C
:1006D0002FBF8090D5029090D602A090D702B09004
:1006E000D802681979098A099B090E949D0B4B0160
:1006F0005C01FFB620E030E84BEB54E40E944F0C65
:1007000018160CF565E080E291E00E94010369E0B3
:1007100087E191E00E9401038091DB02882329F0A8
:1007200065E082E191E00E9401038091DC02882370
:1007300029F069E089E091E00E94010369E080E02E
:1007400091E00E9401036091D90270E090E080E0A6
:100750000E949F0B2B013C01AC019B01C501B40120
:100760000E94690B87FF0AC0A5019401C301B20171
:100770000E94FC0A0E946E0B0E94CE028091C7026A
:100780009091C8029093C6028093C502112371F024
:10079000212F30E0AFEBB0E00E94ED0A2FEF30E008
:1007A00040E050E00E94990A10E4120FF894E091A2
:1007B000CD02F091CE0220813091CC0281E090E018
:1007C000AC0101C0440F3A95EAF7242B2083E09155
:1007D000CA02F091CB0220813091C902AC0101C064
:1007E000440F3A95EAF7242B2083E091D002F09150
:1007F000D10220813091CF0201C0880F3A95EAF7EB
:10080000809582238083FFBE87E090E00197F1F717
:10081000FE01339687E0DF011D928A95E9F781E0BA
:10082000898382E48A831D838E010F5F1F4F4E01EF
:10083000BAE08B0E911C9FEAA92E92E0B92EF80126
:1008400081918F010E948C00D5018D935D01081567
:100850001905A9F78091B002893779F408EB12E005
:1008600084ECA82E82E0B82E80E00E948C00F80173
:1008700081938F01AE16BF06B9F7F894E091D002CC
:10088000F091D10280819091CF0221E030E001C04F
:10089000220F9A95EAF7822B8083FFBE8091B202E5
:1008A0009091B3029093C8028093C7022FB7F89437
:1008B0008091AB029091AC02A091AD02B091AE02DA
:1008C0002FBF8093D5029093D602A093D702B09306
:1008D000D80229960FB6F894DEBF0FBECDBFDF91C8
:1008E000CF911F910F91FF90BF90AF909F908F90ED
:1008F0007F906F905F904F900895CF92DF92EF922C
:10090000FF92CF93DF93EC01603282E07807CCF561
:10091000653B710514F064EB70E0898128E830E0F4
:10092000281B310987FD3395220F331F220F331FF8
:100930006901330FEE08FF088A8128E532E0281BA1
:10094000310987FD3395220F331F220F331F032EEA
:10095000000C440B550B2C193D094E095F09DB01B6
:1009600077FF02C0B0E0A0E00E94C30A24EB30E0B1
:1009700040E050E00E94990AC20ED31EE41EF51E0C
:10098000B601E881EC3070F5298188E890E0821B9F
:10099000910927FD9395880F991F880F991F681754
:1009A00079077CF02A8188E592E0821B910927FD76
:1009B0009395880F991F880F991F681779070CF472
:1009C000CB010297880F991F4FB7F8942E2F30E074
:1009D000F901EE0FFF1FE20FF31FE258FD4F928364
:1009E00081834FBFDF91CF91FF90EF90DF90CF9049
:1009F00008951F93CF93DF93EC01162F88818C30DD
:100A000008F04EC061E0812F0E9478028881282F73
:100A100030E0F901EE0FFF1FE20FF31FE258FD4F28
:100A20001F736081607C612B608319821A822CE0C5
:100A3000622F0E94540C829FB001112430E020E00C
:100A4000AB01420F531FFA01EE0FFF1FE40FF51F1A
:100A5000E258FD4F908196FD16C02F5F3F4F2C301E
:100A6000310571F781110FC01092800082E08093F0
:100A700081001092850010928400B19A80916F00DD
:100A8000826080936F00E8818E2F90E0FC01EE0F72
:100A9000FF1FE80FF91FE258FD4F808180648083BB
:100AA0008881DF91CF911F910895CF93DF93FC014F
:100AB00001900020E9F73197AF01481B590BBC01A9
:100AC0008DED92E00E941F01EC0142E050E060E4F5
:100AD00071E08DED92E00E941F018C0F9D1FDF9150
:100AE000CF9108951F920F920FB60F9211242F935A
:100AF0003F934F935F936F937F938F939F93AF93A6
:100B0000BF93EF93FF938DED92E00E949D01FF91C3
:100B1000EF91BF91AF919F918F917F916F915F9175
:100B20004F913F912F910F900FBE0F901F901895EE
:100B30001F920F920FB60F9211242F938F939F93B2
:100B4000EF93FF93E091ED02F091EE028081E0914E
:100B5000F302F091F40282FD1BC090818091F602B5
:100B60008F5F8F732091F702821741F0E091F602B8
:100B7000F0E0E352FD4F958F8093F602FF91EF91E5
:100B80009F918F912F910F900FBE0F901F901895EE
:100B90008081F4CF1F920F920FB60F9211242F93E2
:100BA0003F938F939F93AF93BF938091AB029091AC
:100BB000AC02A091AD02B091AE023091A20223E04E
:100BC000230F2D3758F50196A11DB11D2093A202C8
:100BD0008093AB029093AC02A093AD02B093AE02AF
:100BE0008091A3029091A402A091A502B091A602C7
:100BF0000196A11DB11D8093A3029093A402A0931E
:100C0000A502B093A602BF91AF919F918F913F91A2
:100C10002F910F900FBE0F901F90189526E8230F6D
:100C20000296A11DB11DD2CF1F920F920FB60F9247
:100C300011242F933F934F935F936F937F938F93E1
:100C40009F93AF93BF93CF93DF93EF93FF938091E5
:100C50007C02C0917D02D0E087FF24C01092850005
:100C60001092840080917C028F5F80937C0280913F
:100C70007C02082E000C990B8C179D0724F48091A0
:100C80007C028C30C4F180918400909185000496A0
:100C900080349C4908F47AC080918400909185004A
:100CA000049676C080917C02082E000C990B8C175C
:100CB0009D07C4F6E0917C028E2FEE0F990BFC018C
:100CC000EE0FFF1FE80FF91FE258FD4F808186FFEE
:100CD000C9CFE0917C028E2FEE0F990BFC01EE0F35
:100CE000FF1FE80FF91FE258FD4F808160E08F730E
:100CF0000E942C02B7CF2091840030918500E091B2
:100D00007C028E2FEE0F990BFC01EE0FFF1FE80FF8
:100D1000F91FE258FD4F81819281820F931F9093BA
:100D2000890080938800E0917C028E2FEE0F990B52
:100D3000FC01EE0FFF1FE80FF91FE258FD4F808105
:100D400086FF11C0E0917C028E2FEE0F990BFC0103
:100D5000EE0FFF1FE80FF91FE258FD4F808161E0A1
:100D60008F730E942C02FF91EF91DF91CF91BF9181
:100D7000AF919F918F917F916F915F914F913F9133
:100D80002F910F900FBE0F901F90189580E49CE953
:100D900090938900809388008FEF80937C02E3CF4B
:100DA000FC0190917D029C3098F481E0890F809342
:100DB0007D029083892F90E0FC01EE0FFF1FE80F6A
:100DC000F91FE258FD4F88EB9BE0928381830895E1
:100DD0008FEF80830895EDEDF2E01382128288EEAA
:100DE00093E0A0E0B0E084839583A683B78382E399
:100DF00091E09183808385EC90E09587848784ECF3
:100E000090E09787868780EC90E0918B808B81ECD7
:100E100090E0938B828B82EC90E0958B848B86ECB8
:100E200090E0978B868B118E128E138E148E89E82C
:100E300093E00E94D00686E893E00E94D00683E803
:100E400093E00E94D00680E893E00E94D0068AE5F5
:100E500090E090937F0380937E0390937D03809333
:100E60007C0390937B0380937A030895CF93DF9361
:100E7000CDB7DEB729970FB6F894DEBF0FBECDBF52
:100E8000789484B5826084BD84B5816084BD85B565
:100E9000826085BD85B5816085BD80916E00816071
:100EA00080936E0010928100809181008260809317
:100EB0008100809181008160809381008091800019
:100EC0008160809380008091B10084608093B10044
:100ED0008091B00081608093B00080917A0084603E
:100EE00080937A0080917A00826080937A0080916A
:100EF0007A00816080937A0080917A008068809384
:100F00007A001092C100E091ED02F091EE0282E0D1
:100F10008083E091E902F091EA021082E091EB0215
:100F2000F091EC028FEC80831092F502E091F102D7
:100F3000F091F20286E08083E091EF02F091F002FE
:100F4000808180618083E091EF02F091F0028081E6
:100F500088608083E091EF02F091F00280818068E8
:100F60008083E091EF02F091F00280818F7D808399
:100F700069E070E089E893E00E94F90468E070E0BD
:100F800086E893E00E94F90467E070E083E893E06C
:100F90000E94F90466E070E080E893E00E94F904A2
:100FA0006AE570E089E893E00E947D046AE570E0FC
:100FB00086E893E00E947D046AE570E083E893E0B0
:100FC0000E947D046EE170E080E893E00E947D0461
:100FD0005FB6EBEBF0E084910E940A018093C902B6
:100FE000E7EAF0E0E491F0E0EE0FFF1FE057FF4F7B
:100FF000859194919093CB028093CA02E9EBF0E043
:1010000084910E940A018093CC02E5EAF0E0E49129
:10101000F0E0EE0FFF1FE057FF4F85919491909302
:10102000CE028093CD02E8EBF0E084910E940A01A9
:101030008093CF02E4EAF0E0E491F0E0EE0FFF1FCE
:10104000E057FF4F859194919093D1028093D00205
:10105000EAEBF0E084910E940A018093D202E6EA72
:10106000F0E0E491F0E0EE0FFF1FEA57FF4F8591AB
:1010700094919093D4028093D30261E08DE00E941A
:10108000780261E08AE00E94780261E08BE00E94D1
:10109000780260E08CE00E94780261E08CE00E94BF
:1010A0002C02F894E091CD02F091CE0280819091D3
:1010B000CC0201E010E0980101C0220F9A95EAF7F6
:1010C000822B8083E091CA02F091CB0280819091C3
:1010D000C902980101C0220F9A95EAF7822B8083FA
:1010E0005FBE80E00E94480380E00E944803809138
:1010F000B002813429F0833719F0893709F09DC097
:1011000081E08093D9026BE0E62EF12C77E0A72EE8
:10111000B12C01E010E0EEE26E2EE1E07E2E4424E0
:10112000439465E080E291E00E940103C5010197CC
:10113000F1F7F894E091CD02F091CE028081909188
:10114000CC02980101C0220F9A95EAF7822B808386
:10115000E091CA02F091CB0280819091C90298017E
:1011600001C0220F9A95EAF7822B8083E091D0028A
:10117000F091D10220818091CF02A80102C0440FDA
:10118000551F8A95E2F7CA018095822380835FBE4E
:10119000C5010197F1F755E2C52E51E0D52ECE01DC
:1011A00001964C01F60181916F010E948C00F401BF
:1011B00081934F016C147D04A9F7F894E091D0025B
:1011C000F091D10280819091CF02980101C0220F4D
:1011D0009A95EAF7822B80835FBE8C818093DA0236
:1011E00069E087E191E00E94010365E082E191E01E
:1011F0000E9401034092DB0269E089E091E00E94D5
:1012000001034092DC0269E080E091E00E9401036A
:1012100080E00E9448038091B0028937A9F08337AB
:1012200009F4C7C0F1E0EF1AF10809F4C4C08091D5
:10123000D9028F5F8093D90274CF1093AA020093D2
:10124000A9028DEA91E00FC080E0282F30E03093B2
:10125000AA022093A9028111B0C083E491E00E9408
:10126000550588E791E00E94550500E010E0809167
:10127000A9029091AA02019709F48FC060917E03A0
:1012800070917F0389E893E00E947D0460917A0366
:1012900070917B0386E893E00E947D0460917C035B
:1012A00070917D0383E893E00E947D04F090A80292
:1012B0008F2D0E9448038091C7029091C80220910F
:1012C000C5023091C6022827392743E03695279575
:1012D0004A95E1F720FF1CC08095909523E09695F4
:1012E00087952A95E1F780FF13C081E0F11080E037
:1012F0008093A8028EE392E0F11002C08EE492E0A7
:101300000E94550568EE73E080E090E00E94CE02F6
:101310002091C7023091C8028091C5029091C60207
:10132000822B822780FF0EC08091A70291E081115D
:1013300090E09093A702882309F44AC08BE592E0DD
:101340000E9455058091C7029091C80280959095A2
:1013500094FF49C020917A0330917B032A3A3105EA
:101360000CF041C02F5F3F4F30937B0320937A03F3
:101370008091A702813089F48091B702811185C0E4
:1013800080917A0390917B038A3A91050CF07FC09B
:10139000019690937B0380937A030115110509F45C
:1013A00066CF0E948901882309F461CF0E94000062
:1013B0005ECF83E04ACF82E048CF2130310509F487
:1013C00040CF80EF91E02230310509F04ECF4BCF76
:1013D0008BE692E00E94550568EE73E080E090E0B5
:1013E0000E94CE02AFCF96FF07C020917A033091C2
:1013F0007B032B3031057CF495FD10C097FD1CC09C
:1014000084FD24C086FD30C093FD38C091FFB0CF6D
:1014100062E870E035C021503109A6CF20917E03EB
:1014200030917F032A3A31054CF72F5F3F4F3093BD
:101430007F0320937E039CCF20917E0330917F0316
:101440002B303105ECF221503109F1CF20917C0392
:1014500030917D032A3A3105ACF62F5F3F4F309330
:101460007D0320937C0384CF20917C0330917D0306
:101470002B3031054CF221503109F1CF6EE170E093
:1014800080E893E00E947D0473CF8436B9F08091A8
:10149000B6028823E1F08A3039F18091B4028823C2
:1014A00061F18436B9F18091B50281113CC062E8E6
:1014B00070E080E893E00E947D046FCF80917A0312
:1014C00090917B038B30910514F3019762CF80914B
:1014D0007E0390917F038A3A9105FCF601969093E2
:1014E0007F0380937E0359CF80917E0390917F0389
:1014F0008B30910594F20197F2CF80917C0390910B
:101500007D038A3A91057CF6019690937D03809342
:101510007C0343CF80917C0390917D038B309105B8
:1015200014F20197F2CF843609F037CF6EE170E004
:10153000C0CF052E97FB1EF400940E94B00A57FD01
:1015400007D00E94CB0A07FC03D04EF40C94B00ADB
:1015500050954095309521953F4F4F4F5F4F0895DF
:1015600090958095709561957F4F8F4F9F4F08950F
:101570000E94ED0AA59F900DB49F900DA49F800D31
:10158000911D11240895B7FF0C94B80A0E94B80A5F
:10159000821B930B0895A1E21A2EAA1BBB1BFD010F
:1015A0000DC0AA1FBB1FEE1FFF1FA217B307E40742
:1015B000F50720F0A21BB30BE40BF50B661F771F9A
:1015C000881F991F1A9469F760957095809590957A
:1015D0009B01AC01BD01CF010895A29FB001B39F53
:1015E000C001A39F700D811D1124911DB29F700D2C
:1015F000811D1124911D08955058BB27AA270E94D0
:10160000140B0C94150C0E94070C38F00E940E0C61
:1016100020F039F49F3F19F426F40C94040C0EF4D6
:10162000E095E7FB0C94FE0BE92F0E94260C58F383
:10163000BA17620773078407950720F079F4A6F5B7
:101640000C94480C0EF4E0950B2EBA2FA02D0B0134
:10165000B90190010C01CA01A0011124FF27591BF7
:1016600099F0593F50F4503E68F11A16F040A22FFD
:10167000232F342F4427585FF3CF4695379527956E
:10168000A795F0405395C9F77EF41F16BA0B620B6D
:10169000730B840BBAF09150A1F0FF0FBB1F661FB4
:1016A000771F881FC2F70EC0BA0F621F731F841FF7
:1016B00048F4879577956795B795F7959E3F08F01D
:1016C000B0CF9395880F08F09927EE0F97958795DF
:1016D00008950E94DA0B08F481E008950E942E0C10
:1016E00088F09F5798F0B92F9927B751B0F0E1F0E3
:1016F000660F771F881F991F1AF0BA95C9F714C093
:10170000B13091F00E94480CB1E008950C94480C5F
:10171000672F782F8827B85F39F0B93FCCF38695CB
:1017200077956795B395D9F73EF490958095709528
:1017300061957F4F8F4F9F4F0895E89409C097FBA5
:101740003EF490958095709561957F4F8F4F9F4F98
:101750009923A9F0F92F96E9BB279395F6958795DC
:1017600077956795B795F111F8CFFAF4BB0F11F49F
:1017700060FF1BC06F5F7F4F8F4F9F4F16C0882346
:1017800011F096E911C0772321F09EE8872F762F7C
:1017900005C0662371F096E8862F70E060E02AF0BD
:1017A0009A95660F771F881FDAF7880F96958795A9
:1017B00097F90895990F0008550FAA0BE0E8FEEF7E
:1017C00016161706E807F907C0F012161306E40705
:1017D000F50798F0621B730B840B950B39F40A26FE
:1017E00061F0232B242B252B21F408950A2609F4DC
:1017F000A140A6958FEF811D811D089597F99F67E0
:1018000080E870E060E008959FEF80EC0895002488
:101810000A941616170618060906089500240A9455
:1018200012161306140605060895092E0394000CDB
:1018300011F4882352F0BB0F40F4BF2B11F460FF6A
:1018400004C06F5F7F4F8F4F9F4F089557FD905893
:10185000440F551F59F05F3F71F04795880F97FB74
:10186000991F61F09F3F79F087950895121613062E
:101870001406551FF2CF4695F1DF08C0161617065D
:101880001806991FF1CF8695710561050894089592
:10189000E894BB2766277727CB0197F908950E9424
:1018A000DA0B08F48FEF0895991B79E004C0991FB3
:1018B000961708F0961B881F7A95C9F780950895AA
:1018C000EE0FFF1F0590F491E02D0994F894FFCFDF
:1018D000014300005A5A5A5A5A014F00FFFF0300B1
:1018E0000000014D00000101440001030000000060
:1018F00001430001000145005A5A5A5A5A5A000041
:101900000000BF011F014C010C027D015B016F0152
:101910000D0A0053657520636F6E74726F6C6520DD
:10192000666F6920636F6E65637461646F20652004
:10193000636F6E666967757261646F20636F6D2097
:101940007375636573736F0042656D2076696E64AD
:101950006F2061206D6F76696D656E746163616F74
:1019600020646F20736575204152544943554C41A2
:10197000444F5220524F424F5449434F004E616FE3
:1019800020666F69206964656E7469666963616465
:101990006F206E656E68756D20636F6E74726F6C0C
:1019A0006520636F6E65637461646F2C2072657669
:1019B00069736520617320636F6E65786F6573006E
:1019C000436F6E74726F6C6520656E636F6E7472B8
:1019D00061646F2C20706F72656D206E616F206581
:1019E00020706F73736976656C206C6572206F73FD
:1019F00020636F6D616E646F732C207265766973FE
:101A00006520617320636F6E65786F65730056495A
:101A1000425241204445534C494741444F005649A6
:101A2000425241204C494741444F004A4F59535478
:101A300049434B204C494741444F00434F4E545279
:0C1A40004F4C45204C494741444F0000EA
:107E0000112484B714BE81FFF0D085E080938100F7
:107E100082E08093C00088E18093C10086E0809377
:107E2000C20080E18093C4008EE0C9D0259A86E02C
:107E300020E33CEF91E0309385002093840096BBD3
:107E4000B09BFECF1D9AA8958150A9F7CC24DD24C4
:107E500088248394B5E0AB2EA1E19A2EF3E0BF2EE7
:107E6000A2D0813461F49FD0082FAFD0023811F036
:107E7000013811F484E001C083E08DD089C08234E0
:107E800011F484E103C0853419F485E0A6D080C0E4
:107E9000853579F488D0E82EFF2485D0082F10E0AE
:107EA000102F00270E291F29000F111F8ED06801E7
:107EB0006FC0863521F484E090D080E0DECF843638
:107EC00009F040C070D06FD0082F6DD080E0C81688
:107ED00080E7D80618F4F601B7BEE895C0E0D1E017
:107EE00062D089930C17E1F7F0E0CF16F0E7DF06D8
:107EF00018F0F601B7BEE89568D007B600FCFDCFD4
:107F0000A601A0E0B1E02C9130E011968C91119780
:107F100090E0982F8827822B932B1296FA010C0160
:107F200087BEE89511244E5F5F4FF1E0A038BF0790
:107F300051F7F601A7BEE89507B600FCFDCF97BE46
:107F4000E89526C08437B1F42ED02DD0F82E2BD052
:107F50003CD0F601EF2C8F010F5F1F4F84911BD097
:107F6000EA94F801C1F70894C11CD11CFA94CF0C13
:107F7000D11C0EC0853739F428D08EE10CD085E9AC
:107F80000AD08FE07ACF813511F488E018D01DD067
:107F900080E101D065CF982F8091C00085FFFCCF94
:107FA0009093C60008958091C00087FFFCCF809118
:107FB000C00084FD01C0A8958091C6000895E0E648
:107FC000F0E098E1908380830895EDDF803219F02E
:107FD00088E0F5DFFFCF84E1DECF1F93182FE3DFCA
:107FE0001150E9F7F2DF1F91089580E0E8DFEE27F6
:047FF000FF270994CA
:027FFE00040479
:0400000300007E007B
:00000001FF
